:020000040800F2
:10000000C8060020CD0100081D050008A502000853
:10001000190500089F0200086108000800000000A0
:10002000000000000000000000000000690500085A
:10003000A3020008000000001F050008B906000820
:10004000E7010008E7010008E7010008E7010008F0
:10005000E7010008E7010008E7010008E7010008E0
:10006000E7010008E7010008E7010008E7010008D0
:10007000E7010008E7010008E7010008E7010008C0
:10008000E7010008E7010008E7010008E7010008B0
:10009000E7010008E7010008E7010008E7010008A0
:1000A000E7010008E7010008E7010008E701000890
:1000B0001D07000835070008E7010008E7010008F0
:1000C000E7010008E7010008E7010008E701000870
:1000D000E7010008E7010008E7010008E701000860
:1000E000E7010008E7010008E7010008E701000850
:1000F000E7010008E7010008E7010008E701000840
:10010000E7010008E7010008E7010008E70100082F
:10011000E7010008E70100084D070008E7010008B3
:10012000E7010008E7010008E7010008E70100080F
:1001300000F002F800F03AF80AA090E8000C8244BF
:100140008344AAF10107DA4501D100F02FF8AFF29C
:10015000090EBAE80F0013F0010F18BFFB1A43F0A5
:1001600001031847741F0000941F0000103A24BFB9
:1001700078C878C1FAD8520724BF30C830C144BF0C
:1001800004680C607047000000230024002500264E
:10019000103A28BF78C1FBD8520728BF30C148BFEA
:1001A0000B6070471FB51FBD10B510BD00F044F8BF
:1001B0001146FFF7F7FF00F0F5FE00F062F803B418
:1001C000FFF7F2FF03BC00F063F800000948804726
:1001D00009480047FEE7FEE7FEE7FEE7FEE7FEE729
:1001E000FEE7FEE7FEE7FEE704480549054A064B41
:1001F00070470000BD06000831010008C80000205B
:10020000C8060020C8020020C802002070477047BE
:10021000704710B500F008F8006810BD10B504462E
:1002200000F002F8046010BD00487047680000202C
:1002300000487047680000207546FFF7F9FFAE469A
:1002400005006946534620F00700854618B020B5E2
:10025000FFF7CAFFBDE820404FF000064FF000074F
:100260004FF000084FF0000B21F00701AC46ACE85E
:10027000C009ACE8C009ACE8C009ACE8C0098D46CB
:1002800070470446AFF300802046FFF798FF000058
:1002900001491820ABBEFEE726000200704700BFF0
:1002A000FEE7704700BFFEE710B50246501A164B36
:1002B000186018460068154B1B68C01A144B1B6861
:1002C0005843144B1B68104C246803FB0400124B6A
:1002D0001B681844104B186018460068B0F5E15FC1
:1002E00002DD4FF4E15018600B48006810F5E15F43
:1002F00002DA0A48084B186003480068034B18608C
:100300000548006810BD0000500000205800002083
:10031000100000201400002054000020E0E3FFFF44
:1003200010B50246501A164B186018460068154B57
:100330001B68C01A144B1B685843144B1B68104CA5
:10034000246803FB0400124B1B681844104B186010
:1003500018460068B0F5E15F02DD4FF4E150186027
:100360000B48006810F5E15F02DA0A48084B186094
:1003700003480068034B18600548006810BD000082
:100380005C00002064000020100000201400002009
:1003900060000020E0E3FFFF2DE9F84F04468946A6
:1003A0004FF08241484601F03DFC06465148006846
:1003B00001F020FC0746314601F00AFD054601F038
:1003C000FDFB4D49086008460068B0F5FA6F12DD84
:1003D0004FF4FA6008600968464A1268881A01F00A
:1003E0007EF807460022454B00F0F2FE054600F07D
:1003F0000DFE814617E04048006840F24C418842BB
:1004000011DA08463C49086009683A4A1268881AB5
:1004100001F065F807460022384B00F0D9FE05468A
:1004200000F0F4FD8146484601F078FA05464FF0A9
:100430006632334B00F0CCFE074600F0B5FD824635
:1004400001F01EF82F4908600846006801F0D2FB51
:100450002D49009001F0E6FB83464FF0804101F00A
:10046000EBFA8246294901F0E7FA80464FF07E51C7
:1004700001F0A4FC064684F000473146384601F0FE
:10048000D1FB054601F09AFB214908601D48006830
:1004900001F0B0FB83461C4901F0C4FB82464FF0DB
:1004A000804101F0C9FA8046184901F0C5FA0746B3
:1004B0004FF07E5101F05EFA0646214601F0B2FB94
:1004C000054601F07BFB134908604FF08241484626
:1004D00001F0A8FB06460748006801F08BFB0746C1
:1004E000314601F075FC054601F068FB02490860E1
:1004F000BDE8F88F280000202000002000002040E8
:1005000066A64C402C00002048E17A3EE17A943EF9
:10051000300000203400002000BFFEE77047704725
:100520000146022902D0032910D108E04FF0804291
:10053000928C10B200224FF080439A8408E0094A5E
:10054000128810B20022074B1A8001E0002000BF81
:1005500000BF00EB400202EBC002112392FBF3F05C
:100560007047000024040040704710B500F002F806
:1005700010BD00000CB500200190009033480068C9
:1005800040F480303149086000BF3048006800F412
:10059000003000900198401C0190009818B9019813
:1005A000B0F5A06FF1D12948006800F4003010B117
:1005B0000120009001E0002000900098012843D124
:1005C0002348006840F01000214908600846006890
:1005D00020F0030008600846006840F00200086050
:1005E0001A4840681949486008464068486008460B
:1005F000406840F4806048600846406820F47C1001
:1006000048600846406840F4E810486008460068C2
:1006100040F08070086000BF0C48006800F0007077
:100620000028F9D00948406820F0030007494860D5
:100630000846406840F00200486000BF0348406838
:1006400000F00C000828F9D10CBD00000010024099
:100650000020024010B5002808DD4FF4E153144C8F
:100660002380C0F5E153241F238008E04FF4E153B9
:100670000F4C241F238000F5E153241D2380002903
:1006800009DD4FF4E1530A4C08342380C1F5E153EE
:10069000241F238008E04FF4E153054C241D2380E0
:1006A00001F5E153241D2380024C228010BD00007F
:1006B00038340140342C01407047000010B5134815
:1006C000006840F001001149086008464068104980
:1006D00008400E494860084600680E4908400B492A
:1006E00008600846006820F48020086008464068DA
:1006F00020F4FE0048604FF41F008860FFF735FFCC
:100700004FF000600449086010BD00000010024076
:100710000000FFF8FFFFF6FE08ED00E04FF080401C
:10072000008A4FF08040008A20F001004FF08041A5
:1007300008827047044800880348008820F00100C0
:1007400001490880704700001004004070B5012185
:100750002C4800F074F8002852D00121294800F0FC
:100760006BF82948007808B9012000E000202649EC
:1007700008702648006801280BD125480068401CF5
:100780002349086002283BD1002008601F49086007
:1007900036E01D48007898BB0320FFF7C1FE1D49D5
:1007A00008600220FFF7BCFE1B4908601B48006878
:1007B000404201F01FFA04461948006801F01AFA95
:1007C00005462146FFF7E8FD164801681248006813
:1007D000FFF76AFD14490860144801680D48006875
:1007E000FFF79EFD1249086041F6F42000F03AF848
:1007F000104802680E4801680B480068FFF72AFF9E
:1008000070BD0000001000400000002048000020E3
:100810004C0000203C000020380000202400002074
:100820000C00002030000020400000203400002098
:100830004400002020000020CA430282704730B5E7
:100840000246002000230024158A05EA0103958949
:1008500005EA010413B10CB1012000E0002030BD15
:1008600000BFFEE70E4909684242914202DA414266
:100870000B4A11600A490968814201DD0849086094
:10088000084909684242914202DA4142054A116030
:1008900004490968814201DD02490860704700008F
:1008A0004000002044000020490050EAC12018BF49
:1008B00004204A0D18BF40F0010040F2FF72B2EB75
:1008C000515F08BF40F00200012808BF05207047B3
:1008D0002DE9F74F144694B00021C4E9021115998F
:1008E000079121F00045C9498D4206DC1599C4E9FC
:1008F000000117B00020BDE8F08FC549DFF814A350
:10090000A9423CDD0799C44E0029C44FC44A159939
:10091000534619DD00F018FF554506D0C14AC24BB9
:1009200000F012FFC4E900010AE04FF0D352BE4BC1
:1009300000F00AFF32463B4600F006FFC4E9000122
:1009400017B00120BDE8F08F00F092FB554506D0AE
:10095000B44AB54B00F08CFBC4E900010AE04FF04B
:10096000D352B14B00F084FB32463B4600F080FB93
:10097000C4E9000117B04FF0FF30BDE8F08FAB497C
:10098000A942159978DB21F0004183468846A84AA0
:10099000A84B00F0CFFD0022A74B00F069FB00F050
:1009A0006FFD099000F09BFD06460F469C4A53469A
:1009B00000F0C0FD43465A4600F0BAFE80468A4623
:1009C000984A994B3046394600F0B4FD2A0D01256E
:1009D0000B924246534600F0ABFE032DC4E90001E2
:1009E00039D00B98C1F30A51401A05EB4511113962
:1009F000814230DA9148C346784400EB0510CDF8C7
:100A00000CA00C90D0E900233046394600F092FD4E
:100A100002460B46049106905846039900F094FE56
:100A200080468A4602460B465846039900F08CFEE3
:100A3000049B069A00F088FE83460C980391394681
:100A4000D0E90223304600F075FD5A46039B00F0C2
:100A50007BFE6D1CBDE707980028A2BF099817B060
:100A6000BDE8F08F616881F000416160099817B0BE
:100A70004042BDE8F08FFFE784461598C1F31301AB
:100A8000C0F30A50A0F2F5304FEA601800F01F06DC
:100A9000C6F12000139000200690079041F4801EBC
:100AA00005206D4676B1664A08EB00017A4452F89B
:100AB000213002EB8101B3404A68139922FA01F117
:100AC000194305E05F4908EB0002794451F8221010
:100AD000A1FB0E27A1FB0C131A449A4234BF012339
:100AE000002303EB070A05EB8003D3E901B70F44AA
:100AF0008F4234BF0121002193448B4411B19345AF
:100B000002D903E0934501D2012100E00021C3E9AD
:100B100001B7514445F82010011EA0F10100C1DCCD
:100B20000298059F00F10050800F12900298DDE9B5
:100B30000356800000F0D3FC834628460D9100F058
:100B4000E5FC6FF01D0201F0EAF9CDE90E01304637
:100B500000F0DCFC6FF03D0201F0E1F980468A46CE
:100B6000384600F0D3FC6FF05D0201F0D8F907467B
:100B700042465346119100F07BFADDE90E2300F066
:100B800077FA5A460D9B00F073FA00250E465A4636
:100B900028460D9B00F0D8FDDDE90E2300F0D4FDC2
:100BA0004246534600F0D0FD3A46119B00F0C0FD8E
:100BB000DFF898A0244A534600F0BCFC074688465C
:100BC000234A244B3146284600F0B4FC3A464346BB
:100BD00000F04EFA074688464FF0A8425346314689
:100BE000284600F0A7FC3A46434600F041FA159A21
:100BF00012F0004F04D0129A81F00041524212923A
:100C0000C4E90001129817B0BDE8F08FFB21E93F5D
:100C10007CD90240FB21F93F7370032E8A19A33B54
:100C2000000040543163621A61B4D03DFB21394168
:100C300083C8C96D305FE43F0000E03FB415000099
:100C40003015000012150000182D4454FB21F93D09
:100C50003326A611460B113C2DE9F0414F1E00EB47
:100C6000C7010446D1E9000115461E4637F00602C9
:100C70000DD02A46334600F05DFC7F1E04EBC7030F
:100C8000D3E9002300F0F4F937F00602F1D1022F86
:100C900025D0042F13D0062F18BFBDE8F0812A46B7
:100CA000334600F047FCD4E90A2300F0E1F92A4674
:100CB000334600F03FFCD4E9082300F0D9F92A4676
:100CC000334600F037FCD4E9062300F0D1F92A4678
:100CD000334600F02FFCD4E9042300F0C9F92A467A
:100CE000334600F027FCD4E9022300F0C1F92A467C
:100CF000334600F01FFCD4E90023BDE8F04100F0CA
:100D0000B7B900002DE9F04D04468CB0904821F0B1
:100D10000047164698460D460991874206DA204656
:100D2000294600F0ADFB002800F0AE808948B842AB
:100D30001CDC09980028BCBF85F0004588F00048FD
:100D4000854A864B2046294600F0F2FC04460D46B3
:100D5000324643468248834900F0F6FC22462B4641
:100D600000F086F9002604460D46B04622462B4682
:100D70001046194600F0DEFB8B46824602460B46C3
:100D800000F0D8FB0246089077480B4600910621F8
:100D90007844FFF761FFCDE90310744806217844D9
:100DA000009B089AFFF758FF52465B4600F0C2FBD3
:100DB000CDE9051052465B462046294600F0BAFBB5
:100DC00007910090DDE90310DDE9053200F050F9EC
:100DD000079B009A00F0AEFB3246434600F048F90C
:100DE00052465B4600F0A6FB3246434600F040F90F
:100DF00080460E465E4A5F4B0799009800F09AFBCA
:100E00004246334600F034F982468B4622462B4652
:100E100000F02EF980464F480E46B84214985BDC2D
:100E200000F05DFB074642463346059100F020F98D
:100E3000CDE90110424633461046194600F07AFBD0
:100E4000DDE9013200F0C4F952465B4600F07CFC5B
:100E500022462B4600F06CFC012201F060F83A4675
:100E6000059B00F065FC04460D460998022101EA45
:100E7000A070C0F1010000F032FB0CB022462B46FE
:100E8000BDE8F04D00F056BB1498401C3843204399
:100E90000BD01498012812D00CB022462B46BDE886
:100EA000F04D0020344900F093B90CB025F0004318
:100EB0002246BDE8F04D0020304900F089B92046B7
:100EC0002946FFF7F1FC042808BF00F063F820462C
:100ED0000CB02946BDE8F08D012802BF40460CB099
:100EE000BDE8F08D00270B463A462046294600F023
:100EF0001FFC52465B4600F01BFC04460D46424672
:100F0000334600201C4900F063F983463A46884680
:100F10003346104600F00EFB0022184B00F0A8F8F4
:100F200006468A4622462B463846414600F002FBDA
:100F30003246534600F09CF85A46434600F0FAFA0F
:100F40000CB03A464346BDE8F04D00F091B80000C1
:100F50000000303E2894E53F182D4454FB21E93F22
:100F6000075C143326A6813CE4120000061300003F
:100F7000635555555555D53F0000F0BF0000F03F73
:100F8000012200F0CCBF002213461046114600F0AB
:100F90001FB90000024A0020110700F0C0BF000086
:100FA00001FDFFFF00BFFEE710B5164B21F0004228
:100FB000012486B09A4203DC0022134600941CE010
:100FC000114B9A4208D140B94FF00100FFF726F9C2
:100FD000FFF7D9FF06B010BD03DBFFF7D1FF06B066
:100FE00010BD02AAFFF774FC00F00100A4EB400062
:100FF0000DF1080C00909CE80F00FFF783FE06B08F
:1010000010BD0000FB21E93F0000F07F21F000420D
:10101000A2F16052B2F5801F01F0004328BFD2F167
:101020007F6C0BD95FEA001C43EAC20242EB5070AE
:1010300018BF704728BF20F001007047B2F5801F2D
:10104000BCBF184670474FEA410C1CF5001F02D286
:10105000084600F0AEBE70B500F016FB0000008937
:10106000FFF7F6BF4FF00040A0F58000704700008A
:1010700010B591EA030F48BF83F0004300F16C8381
:10108000841A71EB030C05D2121943EB0C03001BFD
:1010900061EB0C01DFF824E14FEA1154A4EB135C7F
:1010A0001EEA430F18BF9EEA445F73D023EA0E0383
:1010B000DCF1200E21EA045143F4801332D322FAEA
:1010C0000CFE10EB0E0023FA0CFE41EB0E01CCF1EE
:1010D000200E03FA0EFE10EB0E0051F10001B1F5E7
:1010E000801FCCF1200E32D201EB045112FA0EF225
:1010F000BDE8104058BF7047401C38BF5FEA42024D
:1011000018BF7047002814BF20F0010041F1000112
:101110004FEA410313F5001F38BF7047A1F1C041EA
:1011200000F000BB012A43EB0302ACF1200CDCF120
:101130001F0E32BF4FF0000E23FA0CF310EB03002A
:1011400041EB0451B4EB115FD0D0A1EB045101F598
:10115000801149085FEA300001EB04510ED350F1D1
:10116000000038BF12FA0EFE08D1BDE81040C9E7F2
:10117000401C38BF5FEA4202CAD1C3E7BDE8104055
:101180004FEA410313F5001F38BF7047A1F1C0417A
:1011900000F0C8BA9EEA445F08D011EA5E0FBDE8CD
:1011A000104004BF01F0004100207047BDE810402E
:1011B00070B500F069FA00BF64FBBE3E0000E0FFBE
:1011C00002494FF0000000F078BE00BF0000F87F39
:1011D0002DE9C04130B4DFF8A0C23CEA111418BFB9
:1011E0003CEA131400F0EC8081EA03051CEA1114B8
:1011F00044EAD57418BF1CEA131500F0C780A4EBAD
:1012000005044FF0004545EAC12145EAC32341EA00
:10121000505143EA525304F17F74994204F500346B
:101220004FEAC0204FEAC22208BF904200F09C80E3
:101230004FEA13650FF24016765D4FEA134506FB41
:1012400005F7C7F1807706FB07F74FEAD737A7FB0B
:1012500003687642C8F58038A7FB06CE38BFA8F1F0
:10126000010807FB08E64FF0000EA6FB028CE6FB28
:1012700003CEDCF1000CCEF1004E38BFAEF1010E12
:10128000A6FB0C584FF000074FF00005E6FB0E8759
:10129000A1FB08C6A0FB07CE16EB0E0645F1000524
:1012A000E1FB076515F1E04E7EBFA4F580345FEAEF
:1012B00046066D4116F1800745F100054FEA1727F4
:1012C0004FEA066647EA0567A6F1DE46B6F1805F9B
:1012D0004FEA15251FD9384624F0010C05EBC471DF
:1012E000BCF1FE6F01EB0C1102D8F0BCBDE800812F
:1012F00024425CBF01F5801E9EEAC47F02D4F0BC8C
:10130000BDE80081244238D4F0BCA1F1C041BDE861
:10131000004100F007BA4FEAD22242EA43524FEAB4
:10132000D323A7FB02864FEAD02040EA415007FBB7
:1013300003661EEA0E0F4FEAD12105FB026658BF75
:10134000A6EB0056B6EB00564FEA520E4EEAC37EAD
:1013500018EB0E0E56EB530EBDD518EB02085E418E
:101360007F1C55F10005B6E74FF480154FF00007DC
:101370004FF000064FF00008ADE7F0BC4FF0000062
:1013800001F1C04101F00041BDE8008111EA0C1FEC
:101390000CEA131500D00CE013EA0C1F00F02580B6
:1013A0004FF00000F0BC81EA030101F00041BDE80C
:1013B0000081F0BCBDE8004181EA030100F0B2B950
:1013C000F0BCBDE8004170B500F05EF9097EFC3E5E
:1013D00000F007B881EA03014FF0000001F000417E
:1013E000704781EA030100F09DB9F0BCBDE80041FF
:1013F0004FF0000021497047FFFDFBF9F7F5F4F2CB
:10140000F0EEEDEBE9E8E6E4E3E1E0DEDDDBDAD89F
:10141000D7D5D4D3D1D0CFCDCCCBCAC8C7C6C5C4FD
:10142000C2C1C0BFBEBDBCBBBAB9B8B7B6B5B4B314
:10143000B2B1B0AFAEADACABAAA9A8A8A7A6A5A4FF
:10144000A3A3A2A1A09F9F9E9D9C9C9B9A999998C3
:101450009797969595949393929191908F8F8E8E66
:101460008D8C8C8B8B8A89898888878786858584F3
:1014700084838382828181800000FF070000F87FDF
:101480004FEA41034FEA5353A3F58063D3F11E03A0
:10149000C8BFD3F1210C0CDD4FF0004242EAC1225B
:1014A00042EA505232FA03FC8CEAE17CACEBE17088
:1014B0007047102BC4BF0020704703F5787CBCF147
:1014C000FF3F04D06FF0004282EA2100704770B500
:1014D00000F0DAF84992248000207047F2E710F01B
:1014E000004248BF4042B0FA80F310FA03F10AD03C
:1014F000C3F11D0303F580634FEA415002EB035231
:1015000002EBD12170474FF000007047B0FA80F332
:1015100010FA03F10AD0C3F11D0303F580634FEA0B
:1015200041504FEA035202EBD12170474FF00000C7
:1015300070470000DFF848C170B51CEA111E1EBFDD
:101540001CEA13159EEA0C0F95EA0C0F00F06F8051
:1015500081EA030423EA4C134EEAD47E21EA4C11BB
:1015600041F4801143F48013AE44A1FB024CA0FB74
:101570000365AEF17F7E361955EB0C05A1FB034CDC
:101580004CF10003A0FB021C16EB0C06654153F165
:101590000003094218BF46F0010613F4007F0BD187
:1015A0004FEA03314FEA0530340341EA155140EA6E
:1015B00016506FF003020AE04FEAC3214FEAC5203C
:1015C000F40241EA555140EA56506FF0020202EB34
:1015D0002E4201EB025585EACE710AD05FEA440C37
:1015E00018BF24F0004450F1000041F1000120EA4E
:1015F000D47040F2FE7C624500D270BDA84214BF98
:101600004FF080444FF04044002E08BF0024BEF14C
:10161000806FA8BFA1F1C041BDE8704080F2828018
:101620004FF0000001F1C04101F0004170479EEA17
:101630000C0F0CEA131518BF95EA0C0F06D04FF0EB
:10164000000081EA030E0EF0004170BD00F01CF8AE
:101650008900013E00F007B800F009B84FEA430CDA
:101660005FEA5C5C08D081EA030100F05BB84FEAF6
:10167000410C5FEA5C5CF6D14FF000000149704715
:101680000000FF070000F87F0EF1020E2EF0030E9F
:101690005EF8046B364205D4012A43EB030515F5C9
:1016A000001F12D8012841EB010C1CF5001F0CD8BB
:1016B0000ED14FEAD17C15F5001F0CEB4C0C0CF150
:1016C000020C08BF4CEBD37C04E04FF0080C01E0A7
:1016D0004FEAD37C0CEB4C0526FA05F606F007061C
:1016E000B6F1040C06D20EEB860CBDE870404CF04F
:1016F000010C6047DFE80CF0090B02024FF00041DB
:101700004FF00000A1F5002170BD194610460128D8
:1017100051EB010418BFD4F5001484BF002001F080
:10172000004170BD0808A0F500114FEA3101704773
:1017300091EA030F10B581F000413FF5A1AC83F0B1
:10174000004300F009B8000010B591EA030F48BF4C
:1017500083F000433FF594AC841A71EB030C07D27D
:1017600012198CF0004C43EB0C03001B61EB0C01D5
:10177000DFF8A4E14FEA1154A4EB135C1EEA430F17
:1017800018BF9EEA445F00F0B08023EA6E03524225
:1017900021EA0451C3EB6E0338BF5B1EDCF1200E5F
:1017A00025D322FA0CFE10EB0E0043FA0CFE41EB9F
:1017B0000E01CCF1200E03FA0EFE10EB0E0051F1DB
:1017C0000001CCF1200E29D412FA0EF201EB0451E3
:1017D000BDE8104058BF7047401C1CBFB2F1004F1D
:1017E000704700280CBF491C20F00100704712EB25
:1017F000020E43EB030218BF4FF0010E4EEA420205
:10180000ACF1200CDCF11E0E54D943FA0CFE10EBA7
:101810000E0051F1FF31CCF11E0ED5D50EF1010EA7
:1018200012FA0EFE404141EB010101EB445C5FEA1C
:101830005C5C10D910EBDE7001EB045138BFBEF1D7
:10184000004FBDE8104018BF704700280CBF491C6E
:1018500020F00100704730D24FEAD42C11F500116E
:1018600024F400641BD0B1FA81F20B3AA41AA41E2E
:10187000D2F12003914030FA03F31943904001EB79
:10188000CC71002C01EB0451BDE81040A8BF70479B
:1018900001F1C0414FF0000001F000417047B0FA83
:1018A00080F310FA03F100D110BDE41A173C48058B
:1018B000C90AE4E701EB045110BD491001EB0451E2
:1018C000BDE810404FEA300002E04FF000017047E1
:1018D0004A0008BF0042F8D0B2F5001F28BF704789
:1018E00001F000414FF0000070479EEA445F07D0CE
:1018F00011EA5E0FBDE8104004BF002100207047D0
:10190000BDE8104070B5FFF7BFFE00BF40DFF63EF8
:1019100083F00041104670470000E0FF43004FEAAB
:10192000D30C4FEA3C0C43401FBF40070CF1605101
:1019300013F0FE4F70471CF0006F03D100200CF035
:10194000004170470CF0004343EA507010B540EA84
:10195000CC0000F0E8F900BF000000924FEA00015F
:10196000FFF7E0BE4FF000414FF00000A1F500216D
:101970007047000090EA010F48BF81F0004100F17C
:101980002E82421A3CBF801A89184FEAD0524FF07B
:101990007F4C1CEA410FA2EBD15318BF9CEA026FA7
:1019A00000F03B804FF0004C4CEA00204CEA012153
:1019B00021FA03FC10EB0C0C1ED202F1FF325FEA9D
:1019C0001C2040EBC25038BF70471CF07F0F4FEA1D
:1019D000400C18BFBCF17F4F38BF7047C3F12003E4
:1019E000994008BF20F00100BCF17F4F38BF70471D
:1019F000A0F1C04000F0DDB94FEA3C00000A40EB26
:101A0000C25028BF1CF0FF0F4FEA400CE6D018BFB1
:101A1000BCF17F4F38BF7047EAE79CEA026F05D000
:101A200010EA5C0F08BF00F00040704710B500F0EE
:101A30007AF900BF64FBBE3E4FF47F0C1CEAD01263
:101A40001EBF1CEAD11392EA0C0F93EA0C0F00F0B0
:101A5000858090EA010F48BF42F4807240F4000C88
:101A600041F400002CF07F4120F07F4000B581421E
:101A7000A2EB03020FF2081CACEB504EC0F10000C9
:101A80009EF800E04FEA4E0E00FB0EFC38BF490006
:101A90004FEA2C1C02F5FA020CFB0EF34FEACE1EA5
:101AA0004FEA112C4FEAC1210EEB635E42EB22425A
:101AB0000EFB0CFC4FEA1C5300FB03114FEA112CE8
:101AC0004FEA01310EFB0CFC4FEADC4C00FB0C1121
:101AD000C14228BF09184CEB03335DF804EB10EB4F
:101AE000410143EBC250B2F57C0F38BF704729D596
:101AF00012F0F00F1CBF00F1C04000F00040704732
:101B0000008182838485868788898B8C8D8E8F91D6
:101B10009293959697999A9C9D9FA0A2A3A5A7A8FA
:101B2000AAACAEB0B2B3B5B7B9BCBEC0C2C5C7C926
:101B3000CCCED1D4D7D9DCDFE2E6E9ECF0F3F7FA8A
:101B4000FE0000004FEA400C0CF1807CBCF17E4F9F
:101B500028BF7047B0F1C04000F02BB990EA010FE8
:101B60000CEAD11348BF42F48072624538BF634526
:101B700007D213F47F0F16D080EA010000F0004076
:101B8000704710B500F0CFF8097EFC3E00F005B8B4
:101B900080EA010000F00040704780EA010000F098
:101BA000004000F006B912F47F0F04BF02487047EE
:101BB00080EA010000F0FDB80000C07F41000B0E7C
:101BC000D3F19E0208D950F400034FEA032323FA0D
:101BD00002F048BF4042704710B500F0A4F800BFC3
:101BE00049922480002070476FF0004282EA200072
:101BF0007047000010F0004148BF4042B0FA80F347
:101C000010FA03F2C3F19D030BD051EAC35101EB6B
:101C10001220530638BF704700F1010008BF20F0C2
:101C2000010070474FF47F0C1CEAD0121EBF1CEA63
:101C3000D11392EA0C0F93EA0C0F00F0478090EA60
:101C4000010F48BF42F480724FF0004C4CEA002074
:101C50004CEA012102EB0302A0FB0113A2F50002F2
:101C6000002918BF43F001035B0028BF4FEA33038C
:101C700042EB22425FEA132C4CEBC2502EBFBCEB6E
:101C8000436FB2F57C0F70474FEA036CBCF1004F15
:101C900008BF20F00100B2F57C0F38BF70470BD5AC
:101CA00082F0FF0212F5803FC8BF704700F1C040CC
:101CB000D8BF00F00040704700F5000C5FEA4C0C04
:101CC00048BF7047B0F1C04000F073B890EA010F10
:101CD0000CEAD11348BF42F48072624538BF6345B5
:101CE00004D280EA010000F00040704710B500F017
:101CF0001AF800BF8900013E00F007B800F009B8EB
:101D00005FEA410C5FEA1C6C08D080EA010000F039
:101D100050B85FEA400C5FEA1C6CF6D14FF000400F
:101D2000A0F5800070470EF1020E2EF0030E5EF853
:101D3000044B244204D44FEA4102B2F17F4F11D840
:101D40004FEA4003B3F17F4F0CD80ED14FEAD07C5D
:101D5000B2F17F4F0CEB4C0C0CF1020C08BF4CEBBA
:101D6000D17C04E04FF0080C01E04FEAD17C0CEB91
:101D70004C0324FA03F404F00704B4F1040C06D273
:101D80000EEB840CBDE810404CF0010C6047DFE81E
:101D90000CF0070802024FF00040A0F5800010BDD3
:101DA0000846420018BFD2F1807288BF00F00040A0
:101DB00010BDFF2141EAD050C005704780F00040BF
:101DC00090EA010F7FF5DDAD81F0004100F007B82A
:101DD00090EA010F48BF81F000413FF5D2AD421AB1
:101DE00004D882F00042A0EB020011444FEAD05226
:101DF0004FF07F4C1CEA410FA2EBD15318BF9CEA75
:101E0000026F4AD04FF0004C4CEA00204CEA01210E
:101E100021FA03FCB0EB0C0C0FD412F0FE0F36D0FD
:101E20005FEA4C001DD5001240EBC25038BF70472E
:101E30001CF03F0F18BF70470BE0A2F101025FEAF0
:101E40001C2040EBC25038BF70471CF07F0F18BFFA
:101E50007047C3F12003994014BF401E20F00100D9
:101E6000704780084FEA122308BF7047B0FA80FC21
:101E7000A2EB0C02CCF1280C60FA0CF093EA122FC2
:101E800004BF00EBC25070474FEAC3707047130A9B
:101E90005FEADC1008BF7047F6E79CEA026F04D0E7
:101EA00010EA5C0F08BF0020704710B5FFF73BFF3A
:101EB00040DFF63E81F0004070470CF00F03092B25
:101EC00008BF082000F059800A2B0BD0082B18BF40
:101ED000704708BF1CF0400F0AD04FF000004FF0D1
:101EE000000170471CF0400F18BF4FF000407047D2
:101EF0001CF0100F08D020F0704300F07F4242EA3F
:101F0000D3014FEA4370704700F0604021F07F42F8
:101F100042EA000201F07F4040EA727070474FF0E1
:101F2000FF0C4CF4E06C1CEA11531CBF9CEA030C40
:101F30009445C2BFDA4201EB02517047002B0DD02D
:101F4000BCF1000F0FD0002A01F00041A4BF41F006
:101F5000E04141F07F614FF00000704701F0004127
:101F60004FF00000704750EA01334FF09B0C18BF50
:101F70004CF0806C7FF424A970471CF4801F11D0B2
:101F80001CF4E02F03D06FEACC31490070474FF0CA
:101F90004050EFF3008222F0704242EA000282F3E6
:101FA000008870474FF000007047000000000000FC
:101FB00000004054FB21F93F3163621A61B4D03D07
:101FC0000000601A61B4D03D7370032E8A19A33BE0
:101FD0000000002E8A19A33BC14920259A837B3932
:101FE00000000000000000006E83F9A22915444E95
:101FF000D15727FCC0DD34F5999562DB4190433C15
:10200000AB6351FE61C5BBDE3A6E24B7E0D24D42F0
:10201000EA2E49061C92D1091CEB1DFE3EA729B1F0
:10202000F53582E88444BB2E26709CE9417E5FB47E
:1020300039D69139F43953838B5F849C3B28F9BDA1
:10204000FF97F81F0F9805DE8B112FEF1F6D0A5AAF
:10205000CF7E366DB709CB27663F464F2DEA5F9E90
:10206000C7BA27757BF1E5EBF739073DEA92528A4B
:10207000B15FFB6B085D8D1F7AFE10111111C13F1E
:1020800037D60684F464963F280356C9226D6D3F07
:102090000165F2F2D844433FA69237A0887E143FF0
:1020A000735360DBCB75F3BEFE41B31BBAA1AB3FEC
:1020B00093846EE9E326823F1583E0FEC8DB573F39
:1020C00068108D1AF726303FE9A7F0320FB8123F9B
:1020D000D47ABF74702AFB3EF8200008000000206C
:1020E000680000006C010008602100086800002002
:1020F00060060000880100080000000000000000E9
:1021000000000000000000000000000000000000CF
:1021100000000000000000000000000000000000BF
:1021200000000000000000000000000000000000AF
:10213000000000000000000000000000000000009F
:10214000000000000000000000000000000000008F
:10215000000000000000000000000000000000007F
:04000005080001CD21
:00000001FF
